:020000040800F2
:100000003016002021020008FF0B0008890B0008B1
:10001000FD0B0008AB030008250D000800000000E0
:10002000000000000000000000000000890100083E
:10003000AD03000800000000CD010008AD0C000871
:100040003B0200083B0200083B0200083B0200089C
:100050003B0200083B0200083B0200083B0200088C
:100060003B0200083B0200083B0200083B0200087C
:100070003B0200083B0200083B0200083B0200086C
:100080003B0200083B0200083B0200083B0200085C
:100090003B0200083B0200083B0200083B0200084C
:1000A0003B0200083B0200083B0200083B0200083C
:1000B0003B0200083B0200083B0200083B0200082C
:1000C0003B0200083B0200083B0200083B0200081C
:1000D0003B0200083B0200083B0200083B0200080C
:1000E0003B0200083B0200083B02000800F002F857
:1000F00000F03AF80AA090E8000C82448344AAF188
:100100000107DA4501D100F02FF8AFF2090EBAE885
:100110000F0013F0010F18BFFB1A43F0010318473B
:10012000B0290000D0290000103A24BF78C878C157
:10013000FAD8520724BF30C830C144BF04680C60ED
:10014000704700000023002400250026103A28BF35
:1001500078C1FBD8520728BF30C148BF0B60704739
:100160001FB51FBD10B510BD00F0EAF81146FFF72E
:10017000F7FF01F01DF900F008F903B4FFF7F2FFF3
:1001800003BC00F00BF90000224B19680868B0E8C6
:10019000F00F80F30988BFF36F8F4FF0000080F3FA
:1001A00011884EF00D0E70470000000006480068F0
:1001B000006880F3088862B661B6BFF34F8FBFF363
:1001C0006F8F00DF00BF00BF08ED00E0EFF3098094
:1001D000BFF36F8F0F4B1A6820E9F00F106008B55E
:1001E0004FF0500080F31188BFF34F8FBFF36F8F34
:1001F00001F0E0FC4FF0000080F31188BDE80840FA
:1002000019680868B0E8F00F80F30988BFF36F8FB2
:10021000704700BF20000020EFF30580704700000A
:100220000948804709480047FEE7FEE7FEE7FEE78A
:10023000FEE7FEE7FEE7FEE7FEE7FEE704480549C6
:10024000054A064B70470000230D0008ED0000082A
:100250003010002030160020301200203012002014
:1002600010B5203AC0F00B80B1E81850203AA0E851
:100270001850B1E81850A0E81850BFF4F5AF5FEA85
:10028000027C24BFB1E81850A0E8185044BF18C938
:1002900018C0BDE810405FEA827C24BF51F8043BDF
:1002A00040F8043B08BF7047D20728BF31F8023B33
:1002B00048BF11F8012B28BF20F8023B48BF00F8C7
:1002C000012B70474FF0000200B513469446964646
:1002D000203922BFA0E80C50A0E80C50B1F1200159
:1002E000BFF4F7AF090728BFA0E80C5048BF0CC007
:1002F0005DF804EB890028BF40F8042B08BF704765
:1003000048BF20F8022B11F0804F18BF00F8012BD6
:10031000704770477047704710B500F009F80068E3
:1003200010BD10B5044600F003F8046010BD0000D5
:1003300000487047CC0F002000487047CC0F0020C9
:100340007546FFF7F9FFAE4605006946534620F0B3
:100350000700854618B020B5FFF770FFBDE82040C4
:100360004FF000064FF000074FF000084FF0000B71
:1003700021F00701AC46ACE8C009ACE8C009ACE824
:10038000C009ACE8C0098D46704710B50446AFF30C
:1003900000802046BDE81040FFF7EFBE014918205D
:1003A000ABBEFEE7260002007047FEE77047000084
:1003B0002DE9F84FDFF8B8910024A9F1040B23468A
:1003C0000F2709F1040AABF1040EC9E00125A5408D
:1003D0002A40AA427DD1674ED1F804C0ACEB060892
:1003E000B44532D014DCBCF1030F3AD009DCBCF1C7
:1003F000000F2AD0BCF1010F1CD0BCF1020F31D18B
:100400001DE0BCF1110F17D0BCF1120F2AD119E079
:10041000B8F5881F19D006DCB8F5803F15D0B8F5BF
:10042000801F1FD111E0B8F5001F0ED0B8F5041FD2
:1004300018D10AE0CB6815E0CB681B1D12E0CB6831
:1004400008330FE0CB680C330CE08B682BB1012B29
:100450004FF0080303D0456104E0042302E0056186
:1004600000E00023FF2A01D8064601E000F104065F
:100470004FEA840501D9A5F12005D6F8008007FAD6
:1004800005FC28EA0C0803FA05F548EA0508C6F851
:1004900000804D68ED0062D5374DAE6946F001062B
:1004A000AE61AD6924F0030605F001050095334DFA
:1004B00006EB050CDCF80850A607360F07FA06F81D
:1004C00025EA0805DFF8B880404503D14FF0000861
:1004D00017E044E0DFF8AC80404502D14FF001085E
:1004E0000FE0DFF8A480404502D14FF0020808E099
:1004F000DFF89880404502D14FF0030801E04FF04B
:10050000040808FA06F848EA0508CCF808804D689F
:10051000D9F80060ED024D4601D5164300E0964340
:100520002E604D68DAF80060AD02554601D51643DD
:1005300000E096432E604D68DBF80060AD035D4639
:1005400001D5164300E096432E604D68DEF800604A
:10055000ED03754601D5164300E096432E60641CFA
:100560000D682A46E5407FF431AFBDE8F88F000002
:10057000080401400000111000100240000001407A
:1005800000080140000C014000100140001401402F
:100590000AB1016170470904FBE700000148806867
:1005A0007047000010000020024881680278114462
:1005B0008160704710000020074810B5016841F0C5
:1005C00010010160032000F06DF80F2000F006F824
:1005D00000F024F8002010BD0020024070B50D4D41
:1005E00004464FF47A712878B1FBF0F00A490968A3
:1005F000B1FBF0F000F0B4FA48B9102C07D2002299
:100600002146501E00F02EF800206C6070BD0120C5
:1006100070BD0000100000201C0000200F4808B52D
:10062000816941F001018161816901F0010100915D
:10063000C16941F08051C161C069002200F0805061
:1006400000900F21901E00F00DF80548416821F040
:10065000E06141F00071416008BD000000100240FF
:1006600000000140F0B40E4B1B680C46C3F302239C
:10067000C3F10705042D00D90425191D072901D24E
:10068000002300E0DB1E012606FA05F1491E214089
:1006900099409E40761E16403143F0BC00F057BB97
:1006A0000CED00E0064900F0070208684FF6FF0372
:1006B000184040EA0220034A1043086070470000D7
:1006C0000CED00E00000FA052DE9F0470F460500AB
:1006D00061D0434E306800F00700B84209D230685C
:1006E00020F0070038433060306800F00700B8425F
:1006F00051D128683B4C810712D5400703D560686B
:1007000040F4E06060602878000703D5606840F43A
:10071000605060606068A96820F0F0000843606085
:100720002878C00728D06868012810D021680228DE
:1007300010D0890700292EDA616821F003010143F6
:100740006160FFF72BFF804641F288390DE0216898
:100750008903EFE78901EDE7FFF720FFA0EB080130
:10076000494502D90320BDE8F0876068696800F058
:100770000C00B0EB810FEFD1306800F00700B842F9
:100780000BD9306820F0070038433060306800F043
:100790000700B84201D00120E5E72878400705D5D9
:1007A0006068E96820F4E06008436060287800072A
:1007B00006D56068296920F4605040EAC100606095
:1007C00000F018F86168084AC1F30311515CC84091
:1007D0000649086006480068FFF700FF0020C2E7EE
:1007E0000020024000100240822900081C00002066
:1007F000140000200E4A51680E4801F00C03042B2F
:1008000011D0082B0FD10C48C1F38343C903C05C3E
:100810000AD55168084AC1F34041921E515C054A0D
:100820005043B0FBF1F07047044948437047000063
:100830000010024000127A007229000800093D00F1
:100840002DE9F84F040070D02078C04DC00749D082
:100850006868C0F38100012807D06868C0F3810090
:10086000022809D16868C00306D52868800339D5F5
:1008700060680028E7D035E06068B0F5803F0BD0B5
:1008800010B1B0F5A02F11D0286820F48030286076
:10089000286820F4802002E0286840F48030286036
:1008A000606890B1FFF77AFE06460AE0286840F4D7
:1008B00080202860F0E700BFFFF770FE801B6428EF
:1008C00073D828688003F7D50CE0FFF767FE06466B
:1008D00005E000BFFFF762FE801B6428F0D828689F
:1008E0008003F7D420789A4E80074FF001094FF02B
:1008F000000839D5686810F00C0F07D06868C0F39D
:100900008100022809D16868C00306D428688007DE
:1009100014D52069012808D110E02069B0B1C6F8CB
:100920000090FFF73BFE074605E00AE1FFF736FEC1
:10093000C01B0228C4D828688007F7D528686169D9
:1009400020F0F80040EAC10028600DE0C6F8008001
:10095000FFF724FE074604E0FFF720FEC01B022835
:1009600023D828688007F7D4207800072CD5794849
:10097000A169D9B1C0F80090FFF710FE074604E066
:10098000FFF70CFEC01B02280FD8686A8007F7D556
:1009900071484FF4FA510068B0FBF1F0009000BFCD
:1009A0000098411E0091FAD20EE080E0C0F800806D
:1009B000FFF7F4FD074604E0FFF7F0FDC01B022837
:1009C00075D8686A8007F7D42078400760D5E86951
:1009D0000027C00008D4E86940F08050E861E86969
:1009E000012700F0805000905C480168C90513D4CD
:1009F0000168834641F480710160FFF7CFFD8246B4
:100A000006E000BFFFF7CAFDA0EB0A0064284ED83D
:100A1000DBF80000C005F5D5E06801280AD008B170
:100A2000052813D0286A20F001002862286A20F0E7
:100A3000040002E0286A40F001002862E06841F208
:100A4000883B98B1FFF7AAFD82460BE0286A40F088
:100A500004002862EEE700BFFFF7A0FDA0EB0A014B
:100A600059455AD8286A8007F6D50CE0FFF796FD5D
:100A7000824605E0FFF792FDA0EB0A0159454CD8EC
:100A8000286A8007F6D41FB1E86920F08050E86139
:100A9000E06988B36968C1F38101022944D0022862
:100AA000C6F8608004D0FFF779FD044638E034E0F2
:100AB000FFF774FD074604E0FFF770FDC01B022836
:100AC0002BD828688001F7D4206AB0F5803F05D183
:100AD0006868A16820F4003008436860D4E9080120
:100AE0000843696821F4741108436860C6F860908F
:100AF000FFF754FD044606E025E000BFFFF74EFD7A
:100B0000001B022809D828688001F7D51BE000BF28
:100B1000FFF744FD001B022802D90320BDE8F88F2F
:100B200028688001F4D40EE00128F7D06868226AB2
:100B300000F48031914204D1616A00F4701088425F
:100B400001D00120EAE70020E8E7000000100240A1
:100B500000004242800442421C000020007000401D
:100B600010B5401EB0F1807F01D3012010BD4FF0C1
:100B7000E02460610F21601700F0E9F80020A06117
:100B800007202061002010BDFEE7000070B586B090
:100B9000002418480094019402940394816941F060
:100BA00010018161816901F010010491816941F0B6
:100BB00020018161816901F020010491816941F086
:100BC000040181618069012200F004000A4E55038E
:100BD000049029463046FFF7DBFC01200095CDE963
:100BE00001040220039069463046FFF7E1FB06B09E
:100BF00070BD00000010024000100140FEE7FEE75B
:100C0000134E144F144C4FF4005500222946304621
:100C1000FFF7BEFCD4E9020100223B4601F020FCB4
:100C200001F0C6FB00F0EEFB012229463046FFF73B
:100C3000AFFCD4E9020100223B4601F011FC002286
:100C40003B4601F00BFD01F0B3FB00F0DBFBDCE702
:100C50000010014000003440000000200F4E104FF3
:100C6000DFF84080104D0024142000F0CBFB20461C
:100C700001F0CBFB32463B4601F0F2FB002243463B
:100C800001F00EFA00F01AFE641C642CC5E90201A2
:100C9000EADB012000F0B6FBE5E70000F1D4C85321
:100CA000FB210940000059400000002010B5FFF76B
:100CB0007BFC01F06FF8012803D0BDE8104000F084
:100CC000FBBF10BD30B58FB028216846FFF7FAFA98
:100CD00014210AA8FFF7F6FA01210804CDE9001053
:100CE0000024029402250491CDE907504FF4E0104E
:100CF00009906846FFF7A4FD08B172B6FEE70F2021
:100D0000CDE90A054FF48060CDE90C4002210AA824
:100D10000E94FFF7D9FC002801D072B6FEE70FB0A1
:100D200030BD7047FEE7490050EAC12018BF0420DB
:100D30004A0D18BF40F0010040F2FF72B2EB515F64
:100D400008BF40F00200012808BF052070470907CE
:100D5000090E002804DB00F1E02080F80014704741
:100D600000F00F0000F1E02080F8141D7047000033
:100D70002DE9F74F144694B00021C4E902111599EA
:100D8000079121F00045C9498D4206DC1599C4E957
:100D9000000117B00020BDE8F08FC549DFF814A3AB
:100DA000A9423CDD0799C44E0029C44FC44A159995
:100DB000534619DD01F05EFC554506D0C14AC24BD1
:100DC00001F058FCC4E900010AE04FF0D352BE4BD9
:100DD00001F050FC32463B4601F04CFCC4E90001F6
:100DE00017B00120BDE8F08F01F0AAF8554506D0F4
:100DF000B44AB54B01F0A4F8C4E900010AE04FF091
:100E0000D352B14B01F09CF832463B4601F098F8C2
:100E1000C4E9000117B04FF0FF30BDE8F08FAB49D7
:100E2000A942159978DB21F0004183468846A84AFB
:100E3000A84B01F015FB0022A74B01F081F801F04F
:100E400087FA099001F0E1FA06460F469C4A53469C
:100E500001F006FB43465A4601F000FC80468A46F4
:100E6000984A994B3046394601F0FAFA2A0D012585
:100E70000B924246534601F0F1FB032DC4E90001F9
:100E800039D00B98C1F30A51401A05EB45111139BD
:100E9000814230DA9148C346784400EB0510CDF822
:100EA0000CA00C90D0E900233046394601F0D8FA66
:100EB00002460B46049106905846039901F0DAFB6E
:100EC00080468A4602460B465846039901F0D2FBFB
:100ED000049B069A01F0CEFB83460C980391394699
:100EE000D0E90223304601F0BBFA5A46039B01F0D9
:100EF000C1FB6D1CBDE707980028A2BF099817B079
:100F0000BDE8F08F616881F000416160099817B019
:100F10004042BDE8F08FFFE784461598C1F3130106
:100F2000C0F30A50A0F2F5304FEA601800F01F0637
:100F3000C6F12000139000200690079041F4801E17
:100F400005206D4676B1664A08EB00017A4452F8F6
:100F5000213002EB8101B3404A68139922FA01F172
:100F6000194305E05F4908EB0002794451F822106B
:100F7000A1FB0E27A1FB0C131A449A4234BF012394
:100F8000002303EB070A05EB8003D3E901B70F4405
:100F90008F4234BF0121002193448B4411B193450A
:100FA00002D903E0934501D2012100E00021C3E909
:100FB00001B7514445F82010011EA0F10100C1DC29
:100FC0000298059F00F10050800F12900298DDE911
:100FD0000356800001F019FA834628460D9101F06E
:100FE0002BFA6FF01D0201F061FCCDE90E013046D5
:100FF00001F022FA6FF03D0201F058FC80468A466B
:10100000384601F019FA6FF05D0201F04FFC074617
:1010100042465346119100F093FFDDE90E2300F0A4
:101020008FFF5A460D9B00F08BFF00250E465A4657
:1010300028460D9B01F01EFBDDE90E2301F01AFB93
:101040004246534601F016FB3A46119B01F006FB5F
:10105000DFF898A0244A534601F002FA0746884672
:10106000234A244B3146284601F0FAF93A464346D2
:1010700000F066FF074688464FF0A84253463146C7
:10108000284601F0EDF93A46434600F059FF159A1B
:1010900012F0004F04D0129A81F000415242129295
:1010A000C4E90001129817B0BDE8F08FFB21E93FB9
:1010B0007CD90240FB21F93F7370032E8A19A33BB0
:1010C000000040543163621A61B4D03DFB213941C4
:1010D00083C8C96D305FE43F0000E03F2C1B000077
:1010E000A81A00008A1A0000182D4454FB21F93D6B
:1010F0003326A611460B113C2DE9FF4D21F0004887
:1011000007460C46B8F1795F08DA01F021F90028AA
:1011100001BF0020324904B0BDE8F08D3A462346B5
:101120001046194601F09CF9054602462D480E4628
:101130000B460621784400F05DF82A46334601F05C
:101140008FF9DDE9022382468B463846214601F0BD
:1011500087F904460F4652465B462846314601F061
:101160007FF922463B4601F085FA07468A464FF052
:10117000FF322846314601F099FB1B4A90450ADAB6
:101180003A46534601F076FA04B00022BDE8F04D2D
:10119000134B01F063BA154A4245A8BFA8F50015E4
:1011A0004FF00004B8BF124D22462B4601F062FA00
:1011B0000646884622462B460020094901F05AFA85
:1011C00004460D463A4653463046414601F052FA2F
:1011D00004B022462B46BDE8F04D01F03FBA0000B6
:1011E0000000F03F601800003333D33F0000E93FB8
:1011F0000000D23F2DE9F0414F1E00EBC70104462D
:10120000D1E9000115461E4637F006020DD02A46E8
:10121000334601F025F97F1E04EBC703D3E9002311
:1012200000F08EFE37F00602F1D1022F25D0042FF8
:1012300013D0062F18BFBDE8F0812A46334601F0CF
:101240000FF9D4E90A2300F07BFE2A46334601F069
:1012500007F9D4E9082300F073FE2A46334601F06B
:10126000FFF8D4E9062300F06BFE2A46334601F06E
:10127000F7F8D4E9042300F063FE2A46334601F070
:10128000EFF8D4E9022300F05BFE2A46334601F072
:10129000E7F8D4E90023BDE8F04100F051BE0000BA
:1012A0002DE9FF4D054621F0004084B00C46B0F119
:1012B000795F0BDA2846FFF736FD042808BF00F0F7
:1012C0006FF8284608B02146BDE8F08D2A460B4647
:1012D000104601F0C5F806460F462A46234601F09F
:1012E000BFF8804626488A4632463B460521784468
:1012F000FFF780FF83461098029160B3214A224B8A
:101300004046514601F0ACF8CDE900015A4640464E
:101310005146029B01F0A4F882468846DDE90601A9
:101320004FF0FF3201F0C2FA5246434601F0A2F9F3
:1013300032463B4601F094F8DDE9062301F09AF9C4
:10134000DDE9002301F096F908B02A462346BDE8FE
:10135000F04D01F083B90B465A463046394601F04C
:101360007FF8084A084B00F0EBFD4246534601F077
:1013700077F808B02A462346BDE8F04D00F0E0BDFE
:101380009E170000495555555555C5BF012201F01E
:101390008DBA002213461046114600F081BE0000AF
:1013A000024A0020110701F081BA000001FDFFFF91
:1013B0008EB0FFF701F9FFF785FCFFF7E7FB1C2272
:1013C0000B496846FEF74CFF0021684600F026F8FE
:1013D000084C07491C2220601C3107A8FEF740FF7B
:1013E000002107A800F01AF8606000F012F8FEE78C
:1013F000382900080000002001460020842900D080
:10140000C81C704710B500B9012000F06FFB002028
:1014100010BD10B500F090FB002010BD7FB50D464B
:1014200004464169B0F9080081B1A16971B1FFF7C3
:10143000E3FFD4E905128DE80700D4E900102B463C
:10144000226900F07CFC039004B070BDFFF7D4FF6C
:1014500003A9CDE90001208A2B4682B2D4E900100D
:1014600000F040FC012801D00020EDE70398EBE7F5
:101470002DE9F041184C0F460546E6682068001D2E
:1014800000F06CFA38B9206890F82C1001208840E0
:10149000216981432161681C07D137B12168BDE80A
:1014A000F0410E48091D00F09DBA20683544B54250
:1014B0004560216805D2A06BBDE8F041091D00F030
:1014C00079BA606B091D00F075FAA06A854200D2F6
:1014D000A562BDE8F081000020000020B8030020D4
:1014E0002DE9F041054600F089FA2E4CA068401C19
:1014F000A06020682C4F10B1606940B32DE02560DA
:10150000A068012829D1002606EB860007EB8000A1
:1015100000F042FA761C072EF6D323488C3000F0F8
:101520003BFA2148A03000F037FA1F48B43000F0F1
:1015300033FA1D48C83000F02FFA1B48DC3000F0A9
:101540002BFA19488C3060631430A06305E02068E2
:10155000E96AC06A884200D82560606A401C6062FF
:10156000E96A0120226988401043206101EB810073
:1015700007EB8000291D00F035FA00F05FFA606982
:1015800000280CD02068E96AC06A884207D207495F
:101590004FF080500860BFF34F8FBFF36F8FBDE8EF
:1015A000F081000020000020DC02002004ED00E0BB
:1015B00010B5044690F8510058B101280CD002280B
:1015C0000FD0502080F31188BFF34F8FBFF36F8F80
:1015D000FEE7206B00F046FA2046BDE8104000F020
:1015E00041BA10BD10484FF44061420706D0C01DFB
:1015F0000D4920F00700411AC1F540610B4A002354
:101600000144C2E900030839183A21F007011160CA
:101610004B600B600B1AC0E9001393604FF0004061
:101620005360506170470000CC030020740000201C
:10163000144E154CA6F1C8074FF08058DFF84C90B7
:1016400012E000BF00F0DAF9F068C568281D00F06C
:1016500085F9A068401EA0606068401E606000F0D0
:10166000EDF92846FFF7A4FF60680028EAD1386842
:101670000128F9D9C9F80080BFF34F8FBFF36F8FEE
:10168000F2E70000A40300202000002004ED00E0A9
:101690002DE9F0479A46DDE9098481466FF003039E
:1016A000206B03EB82021044089E20F007077807A6
:1016B00007D0502080F31188BFF34F8FBFF36F8F97
:1016C000FEE7002561B1002023180A5C83F834206E
:1016D0000A5C12B1401C1028F6D384F8435001E094
:1016E00084F83450072E00D30626E662C4E911655B
:1016F000201D00F05CF904F1180000F058F9246195
:10170000C6F107006462A061E56484F85050524657
:101710004946384600F0C0F82060B8F1000F01D00B
:10172000C8F80040BDE8F08730B5114900E0114627
:101730000A688242FBD34B685C18844203D140683C
:1017400018444860084643681C18944209D1084C64
:10175000183C2468A24209D052681A4442600A68C0
:1017600012680260814200D0086030BD0460F9E771
:10177000740000200648416B096829B1416BC968B3
:10178000C9684968816270474FF0FF31FAE700008D
:101790002000002008484068401C4FF0500080F3B3
:1017A000118804D0BFF34F8FBFF36F8FFEE7BFF3F5
:1017B0004F8FBFF36F8FFEE77C0000202DE9F041D3
:1017C0000546002700F0EEF9324E306808B9FFF701
:1017D00009FF706905424ED1C5B3083568070ED0C0
:1017E00005F00700C0F108000544680707D0502045
:1017F00080F31188BFF34F8FBFF36F8FFEE72DB3D8
:101800007068854237D82348183001460C6801E0DB
:1018100020460C466168A94202D221680029F7D10E
:1018200031688C4227D007682168016060680837FA
:10183000411B10290FD96019420708D0502080F3AE
:101840001188BFF34F8FBFF36F8FFEE713E0416046
:101850006560FFF769FF61687068401A7060B26880
:10186000904200D2B060706901430020C4E90001D9
:10187000F068401CF06000F001FB780707D05020B2
:1018800080F31188BFF34F8FBFF36F8FFEE73846A9
:10189000BDE8F0815C00002010B5031F4FF080749C
:1018A0001C601B1F21F001011960191F024B0B6006
:1018B000143940380A6010BD9517000800B5254B53
:1018C00021F0004287B09A4203DC002213460092C6
:1018D0002BE0214B9A4208D140B94FF00100FEF7AE
:1018E00020FDFFF756FD07B000BD03DBFFF74EFDFF
:1018F00007B000BD02AAFFF73BFA10F003014FF05A
:1019000001000DD0012914D002291AD00DF1080CC4
:101910009CE80F00FFF7F0FB07B081F0004100BD2D
:101920000DF1080C00909CE80F00FFF7B9FC07B020
:1019300000BD0DF1080C9CE80F00FFF7DDFB07B0C0
:1019400000BD0DF1080C00909CE80F00FFF7A8FC0B
:10195000E2E70000FB21E93F0000F07FD0E901321F
:1019600001699A60D0E901235A604A68824201D134
:1019700082684A60002202610868401E08600868A8
:1019800070470000034B036003F15400086080209F
:10199000106070478800002000F108014FF0FF320E
:1019A000C0E90112C160016100210160704700219E
:1019B0000161704730B50B685A1C02D000F1080273
:1019C00002E0026904E02246546825689D42FAD983
:1019D00053684B6099608A60516008610168491CD6
:1019E000016030BD42684A6093688B6093685960BB
:1019F000916008610168491C01607047502080F3C4
:101A00001188BFF34F8FBFF36F8F0A494868401C9E
:101A1000486001280CD10848006810F0FF0F07D07B
:101A2000502080F31188BFF34F8FBFF36F8FFEE715
:101A3000704700007C00002004ED00E00849486881
:101A400028B1401E486001D180F3118870475020B2
:101A500080F31188BFF34F8FBFF36F8FFEE7000055
:101A60007C00002070B500282AD0164DA0F1080493
:101A700060686969084207D1502080F31188BFF37C
:101A80004F8FBFF36F8FFEE722683AB1502080F38B
:101A90001188BFF34F8FBFF36F8FFEE788436060FD
:101AA00000F080F860686968084468602046FFF7C5
:101AB0003BFE2869401C2861BDE8704000F0DEB99B
:101AC00070BD00005C0000204FF0E02000210161AB
:101AD000816105494FF47A720968B1FBF2F1491E40
:101AE00041610721016170471C00002010B5020010
:101AF00014D00F48006B38B1502080F31188BFF329
:101B00004F8FBFF36F8FFEE700F04CF800211046B7
:101B1000FFF7AEFC00F0B2F9002807D105494FF0FD
:101B200080500860BFF34F8FBFF36F8F10BD000070
:101B30002000002004ED00E010B586B000240394DE
:101B400005AA04A903A80494FFF71CFFDDE903011B
:101B50000094CDE9011000230EA11048059A00F071
:101B6000EEF80F490028C86211D0502080F3118888
:101B7000BFF34F8FBFF36F8F4FF0FF3088620120AC
:101B80004861CC6006B0BDE8104000F041B806B036
:101B900010BD000049444C4500000000311600080B
:101BA000200000200248016B491C016370470000BF
:101BB000200000201448016B11B10121C161704760
:101BC0000021C1610169B1FA81F1C1F11F0101EB8D
:101BD00081020E4951F822306BB101EB820101F113
:101BE00008034A6852684A609A4201D152684A60C2
:101BF000D16801607047502080F31188BFF34F8F88
:101C0000BFF36F8FFEE7000020000020DC02002001
:101C10001CB5264908780190FF20087008788DF8D7
:101C200000009DF800009DF8002000F0F0009042B8
:101C300007D0502080F31188BFF34F8FBFF36F8F11
:101C4000FEE79DF800001A4C00F0500020700720BD
:101C5000A06005E09DF8002052008DF80020401E95
:101C60009DF800201206F5D4A060032807D050206C
:101C700080F31188BFF34F8FBFF36F8FFEE74FF4F0
:101C80004070A060019808700A48016841F4700132
:101C90000160016841F070410160FFF715FF00200D
:101CA0006060FEF783FA00201CBD000000E400E045
:101CB0007C00002020ED00E010B5502080F311885A
:101CC000BFF34F8FBFF36F8F00F072F818B1044964
:101CD0004FF080500860002080F3118810BD000094
:101CE00004ED00E02DE9FF5F8346DDE90E879946AC
:101CF00016468A469000FFF761FD05001CD054206F
:101D0000FFF75CFD040014D00020256384F8510027
:101D1000CDE90240CDE900874B4632465146584650
:101D2000FFF7B6FC2046FFF7DBFB012004B0BDE85F
:101D3000F09F2846FFF796FE4FF0FF30F6E7F0B52C
:101D400085B0DDE90B640A9DA6B1DCB1542700978C
:101D50002663022684F85160002604AFCDE90246CE
:101D6000CDE90057FFF794FC2046FFF7B9FB049834
:101D700005B0F0BD502080F31188BFF34F8FBFF343
:101D80006F8FFEE7502080F31188BFF34F8FBFF3B2
:101D90006F8FFEE70548416919B1006B18B100204B
:101DA000704701207047022070470000200000208B
:101DB0002DE9F0412F4C0026206B28B1A069401C72
:101DC000A0613046BDE8F081E5686D1CE56013D187
:101DD000606B006838B1502080F31188BFF34F8FDB
:101DE000BFF36F8FFEE7606BA16B6163A063206A36
:101DF000401C2062FFF7BEFCA06ADFF87C808542B1
:101E000009D3606B0068A0B1606BC068C768786870
:101E1000854211D2A0622068C06A00EB800158F8A8
:101E20002100012800D90126E0690028C9D0012637
:101E3000C7E74FF0FF30EDE7381DFFF78FFDB86AB9
:101E400018B107F11800FFF789FDF96A012022692E
:101E500088401043206101EB810108EB8100391DAE
:101E6000FFF7C0FDF86A2168C96A8842C9D3012614
:101E7000C7E7000020000020DC0200202DE9F04729
:101E80002C4D00242746286B38B1FFF7B7FD286B8F
:101E9000401E2863286B40B146E0502080F3118833
:101EA000BFF34F8FBFF36F8FFEE7A968224E01206B
:101EB000D1B3A6F1B40980463068E8B1F068C468CF
:101EC00004F11800FFF74AFD201DFFF747FDE06A07
:101ED0002A6908FA00F11143296100EB800109EB3E
:101EE0008100211DFFF77EFDE06A2968C96A8842EA
:101EF000E2D3C5F81C80DFE70CB1FFF73BFCAC690F
:101F000044B14646FFF754FF00B1EE61641EF9D1BB
:101F10000020A861E86938B108490127380708603E
:101F2000BFF34F8FBFF36F8FFFF788FD3846BDE8D3
:101F3000F0870000200000209003002004ED00E066
:101F400010B591EA030F48BF83F0004300F19A8374
:101F5000841A71EB030C05D2121943EB0C03001B1E
:101F600061EB0C01DFF824E14FEA1154A4EB135CA0
:101F70001EEA430F18BF9EEA445F73D023EA0E03A4
:101F8000DCF1200E21EA045143F4801332D322FA0B
:101F90000CFE10EB0E0023FA0CFE41EB0E01CCF10F
:101FA000200E03FA0EFE10EB0E0051F10001B1F508
:101FB000801FCCF1200E32D201EB045112FA0EF246
:101FC000BDE8104058BF7047401C38BF5FEA42026E
:101FD00018BF7047002814BF20F0010041F1000134
:101FE0004FEA410313F5001F38BF7047A1F1C0410C
:101FF00000F02EBB012A43EB0302ACF1200CDCF114
:102000001F0E32BF4FF0000E23FA0CF310EB03004B
:1020100041EB0451B4EB115FD0D0A1EB045101F5B9
:10202000801149085FEA300001EB04510ED350F1F2
:10203000000038BF12FA0EFE08D1BDE81040C9E713
:10204000401C38BF5FEA4202CAD1C3E7BDE8104076
:102050004FEA410313F5001F38BF7047A1F1C0419B
:1020600000F0F6BA9EEA445F08D011EA5E0FBDE8C0
:10207000104004BF01F0004100207047BDE810404F
:1020800070B500F097FA00BF64FBBE3E0000E0FFB1
:1020900002494FF0000000F0D7BB00BF0000F87FFE
:1020A0002DE9C04130B4DFF8A0C23CEA111418BFDA
:1020B0003CEA131400F0EC8081EA03051CEA1114D9
:1020C00044EAD57418BF1CEA131500F0C780A4EBCE
:1020D00005044FF0004545EAC12145EAC32341EA22
:1020E000505143EA525304F17F74994204F500348D
:1020F0004FEAC0204FEAC22208BF904200F09C8005
:102100004FEA13650FF24016765D4FEA134506FB62
:1021100005F7C7F1807706FB07F74FEAD737A7FB2C
:1021200003687642C8F58038A7FB06CE38BFA8F111
:10213000010807FB08E64FF0000EA6FB028CE6FB49
:1021400003CEDCF1000CCEF1004E38BFAEF1010E33
:10215000A6FB0C584FF000074FF00005E6FB0E877A
:10216000A1FB08C6A0FB07CE16EB0E0645F1000545
:10217000E1FB076515F1E04E7EBFA4F580345FEA10
:1021800046066D4116F1800745F100054FEA172715
:102190004FEA066647EA0567A6F1DE46B6F1805FBC
:1021A0004FEA15251FD9384624F0010C05EBC47100
:1021B000BCF1FE6F01EB0C1102D8F0BCBDE8008150
:1021C00024425CBF01F5801E9EEAC47F02D4F0BCAD
:1021D000BDE80081244238D4F0BCA1F1C041BDE883
:1021E000004100F035BA4FEAD22242EA43524FEAA8
:1021F000D323A7FB02864FEAD02040EA415007FBD9
:1022000003661EEA0E0F4FEAD12105FB026658BF96
:10221000A6EB0056B6EB00564FEA520E4EEAC37ECE
:1022200018EB0E0E56EB530EBDD518EB02085E41AF
:102230007F1C55F10005B6E74FF480154FF00007FD
:102240004FF000064FF00008ADE7F0BC4FF0000083
:1022500001F1C04101F00041BDE8008111EA0C1F0D
:102260000CEA131500D00CE013EA0C1F00F02580D7
:102270004FF00000F0BC81EA030101F00041BDE82D
:102280000081F0BCBDE8004181EA030100F0E0B943
:10229000F0BCBDE8004170B500F08CF9097EFC3E51
:1022A00000F007B881EA03014FF0000001F000419F
:1022B000704781EA030100F0CBB9F0BCBDE80041F2
:1022C0004FF0000021497047FFFDFBF9F7F5F4F2EC
:1022D000F0EEEDEBE9E8E6E4E3E1E0DEDDDBDAD8C1
:1022E000D7D5D4D3D1D0CFCDCCCBCAC8C7C6C5C41F
:1022F000C2C1C0BFBEBDBCBBBAB9B8B7B6B5B4B336
:10230000B2B1B0AFAEADACABAAA9A8A8A7A6A5A420
:10231000A3A3A2A1A09F9F9E9D9C9C9B9A999998E4
:102320009797969595949393929191908F8F8E8E87
:102330008D8C8C8B8B8A8989888887878685858414
:1023400084838382828181800000FF070000F87F00
:102350004FEA41034FEA5353A3F58063D3F11E03C1
:10236000C8BFD3F1210C0CDD4FF0004242EAC1227C
:1023700042EA505232FA03FC8CEAE17CACEBE170A9
:102380007047102BC4BF0020704703F5787CBCF168
:10239000FF3F04D06FF0004282EA2100704770B521
:1023A00000F008F94992248000207047F2E700000D
:1023B0004FEA1153A3F58063D3F11E03A8BFD3F1F5
:1023C000200C08DB4FF0004242EAC12252EA505290
:1023D00032FA03F0704709420BD4102BC4BF00201F
:1023E000704703F5787CBCF1FF3F05D04FF0FF301C
:1023F00070474FF00000704770B500F0DBF800BF89
:102400004992248000207047F0E710F0004248BF56
:102410004042B0FA80F310FA03F10AD0C3F11D0371
:1024200003F580634FEA415002EB035202EBD121E6
:1024300070474FF000007047B0FA80F310FA03F1D4
:102440000AD0C3F11D0303F580634FEA41504FEA00
:10245000035202EBD12170474FF00000704700009B
:10246000DFF848C170B51CEA111E1EBF1CEA131527
:102470009EEA0C0F95EA0C0F00F06F8081EA0304CE
:1024800023EA4C134EEAD47E21EA4C1141F4801128
:1024900043F48013AE44A1FB024CA0FB0365AEF1F4
:1024A0007F7E361955EB0C05A1FB034C4CF1000364
:1024B000A0FB021C16EB0C06654153F10003094218
:1024C00018BF46F0010613F4007F0BD14FEA033129
:1024D0004FEA0530340341EA155140EA16506FF0D7
:1024E00003020AE04FEAC3214FEAC520F40241EAA1
:1024F000555140EA56506FF0020202EB2E4201EBBA
:10250000025585EACE710AD05FEA440C18BF24F068
:10251000004450F1000041F1000120EAD47040F283
:10252000FE7C624500D270BDA84214BF4FF08044CB
:102530004FF04044002E08BF0024BEF1806FA8BFBA
:10254000A1F1C041BDE8704080F282804FF00000F0
:1025500001F1C04101F0004170479EEA0C0F0CEA06
:10256000131518BF95EA0C0F06D04FF0000081EA52
:10257000030E0EF0004170BD00F01CF88900013E12
:1025800000F007B800F009B84FEA430C5FEA5C5C62
:1025900008D081EA030100F05BB84FEA410C5FEA22
:1025A0005C5CF6D14FF00000014970470000FF0766
:1025B0000000F87F0EF1020E2EF0030E5EF8046BA1
:1025C000364205D4012A43EB030515F5001F12D846
:1025D000012841EB010C1CF5001F0CD80ED14FEA6D
:1025E000D17C15F5001F0CEB4C0C0CF1020C08BF54
:1025F0004CEBD37C04E04FF0080C01E04FEAD37CB5
:102600000CEB4C0526FA05F606F00706B6F1040CAD
:1026100006D20EEB860CBDE870404CF0010C604712
:10262000DFE80CF0090B02024FF000414FF0000010
:10263000A1F5002170BD19461046012851EB010497
:1026400018BFD4F5001484BF002001F0004170BD14
:102650000808A0F500114FEA3101704791EA030F15
:1026600010B581F000413FF573AC83F0004300F0FA
:1026700009B8000010B591EA030F48BF83F000438A
:102680003FF566AC841A71EB030C07D212198CF07B
:10269000004C43EB0C03001B61EB0C01DFF8A4E1E1
:1026A0004FEA1154A4EB135C1EEA430F18BF9EEAD5
:1026B000445F00F0B08023EA6E03524221EA0451E5
:1026C000C3EB6E0338BF5B1EDCF1200E25D322FA6C
:1026D0000CFE10EB0E0043FA0CFE41EB0E01CCF1A8
:1026E000200E03FA0EFE10EB0E0051F10001CCF1AA
:1026F000200E29D412FA0EF201EB0451BDE810406D
:1027000058BF7047401C1CBFB2F1004F70470028F3
:102710000CBF491C20F00100704712EB020E43EB86
:10272000030218BF4FF0010E4EEA4202ACF1200C3A
:10273000DCF11E0E54D943FA0CFE10EB0E0051F1E1
:10274000FF31CCF11E0ED5D50EF1010E12FA0EFEA0
:10275000404141EB010101EB445C5FEA5C5C10D954
:1027600010EBDE7001EB045138BFBEF1004FBDE845
:10277000104018BF704700280CBF491C20F0010012
:10278000704730D24FEAD42C11F5001124F40064C4
:102790001BD0B1FA81F20B3AA41AA41ED2F1200385
:1027A000914030FA03F31943904001EBCC71002CB7
:1027B00001EB0451BDE81040A8BF704701F1C041D2
:1027C0004FF0000001F000417047B0FA80F310FABA
:1027D00003F100D110BDE41A173C4805C90AE4E72B
:1027E00001EB045110BD491001EB0451BDE810404C
:1027F0004FEA300002E04FF0000170474A0008BF86
:102800000042F8D0B2F5001F28BF704701F0004128
:102810004FF0000070479EEA445F07D011EA5E0F58
:10282000BDE8104004BF002100207047BDE8104003
:1028300070B5FFF7BFFE00BF40DFF63E83F00041FA
:10284000104670470000E0FF0CF00F03092B08BF93
:10285000082000F059800A2B0BD0082B18BF7047B6
:1028600008BF1CF0400F0AD04FF000004FF00001ED
:1028700070471CF0400F18BF4FF0004070471CF02D
:10288000100F08D020F0704300F07F4242EAD301DD
:102890004FEA4370704700F0604021F07F4242EA07
:1028A000000201F07F4040EA727070474FF0FF0C69
:1028B0004CF4E06C1CEA11531CBF9CEA030C9445D9
:1028C000C2BFDA4201EB02517047002B0DD0BCF1C0
:1028D000000F0FD0002A01F00041A4BF41F0E041F9
:1028E00041F07F614FF00000704701F000414FF070
:1028F0000000704750EA01334FF09B0C18BF4CF0BA
:10290000806C7FF4C5AB70471CF4801F11D01CF4A1
:10291000E02F03D06FEACC31490070474FF04050B0
:10292000EFF3008222F0704242EA000282F3008854
:1029300070474FF000007047C42A0008010C0008DF
:102940000100000000000000800000000000000006
:1029500000000000B82A00085D0C0008FDFF000020
:1029600000000000800000000000000000000000E7
:10297000010202030405060708090A0B0C0D0E0FDD
:102980001010000000000000000001020304060710
:1029900008090000000000004C5555555555A53F4D
:1029A0007751C1166CC156BF9015CB19A001FA3EE4
:1029B000AD529C804F7E92BEC4B1B4BD9EEE213E0E
:1029C000D43888BEE9FAA8BD00004054FB21F93F85
:1029D0003163621A61B4D03D0000601A61B4D03D29
:1029E0007370032E8A19A33B0000002E8A19A33BA3
:1029F000C14920259A837B390000000000000000B7
:102A00006E83F9A22915444ED15727FCC0DD34F559
:102A1000999562DB4190433CAB6351FE61C5BBDEDF
:102A20003A6E24B7E0D24D42EA2E49061C92D109F3
:102A30001CEB1DFE3EA729B1F53582E88444BB2E70
:102A400026709CE9417E5FB439D69139F4395383BD
:102A50008B5F849C3B28F9BDFF97F81F0F9805DE1C
:102A60008B112FEF1F6D0A5ACF7E366DB709CB271A
:102A7000663F464F2DEA5F9EC7BA27757BF1E5EBAF
:102A8000F739073DEA92528AB15FFB6B085D8D1FF3
:102A9000A6F810111111813FD561C119A0012ABFFB
:102AA0007DFEB157E31DC73EEB9C2B8AE6E55ABE7F
:102AB0007CD5CF5A3AD9E53D6D795461736B30328C
:102AC0000000000064656661756C745461736B008E
:102AD000F02A0008000000208800000028010008FB
:102AE000782B000888000020A81500004401000889
:102AF00000000000000000000000000000000000D6
:102B000001000000100000000000000000127A0028
:102B100000000000000000000000000000000000B5
:102B200000000000000000000000000000000000A5
:102B30000000000000000000000000000000000095
:102B40000000000000000000000000000000000085
:102B50000000000000000000000000000000000075
:102B60000000000000000000000000000000000065
:082B7000AAAAAAAA00000000B5
:04000005080000ED02
:00000001FF
